{
  "_format": "hh-sol-artifact-1",
  "contractName": "PerpetualFutures",
  "sourceName": "contracts/PerpetualFutures.sol",
  "abi": [
    {
      "inputs": [
        {
          "internalType": "address",
          "name": "",
          "type": "address"
        }
      ],
      "name": "activeTrades",
      "outputs": [
        {
          "internalType": "bool",
          "name": "isLong",
          "type": "bool"
        },
        {
          "internalType": "uint256",
          "name": "size",
          "type": "uint256"
        },
        {
          "internalType": "uint256",
          "name": "entryPrice",
          "type": "uint256"
        }
      ],
      "stateMutability": "view",
      "type": "function"
    },
    {
      "inputs": [
        {
          "internalType": "address",
          "name": "",
          "type": "address"
        }
      ],
      "name": "balances",
      "outputs": [
        {
          "internalType": "uint256",
          "name": "",
          "type": "uint256"
        }
      ],
      "stateMutability": "view",
      "type": "function"
    },
    {
      "inputs": [],
      "name": "closeTrade",
      "outputs": [],
      "stateMutability": "nonpayable",
      "type": "function"
    },
    {
      "inputs": [],
      "name": "deposit",
      "outputs": [],
      "stateMutability": "payable",
      "type": "function"
    },
    {
      "inputs": [],
      "name": "mockPrice",
      "outputs": [
        {
          "internalType": "uint256",
          "name": "",
          "type": "uint256"
        }
      ],
      "stateMutability": "view",
      "type": "function"
    },
    {
      "inputs": [
        {
          "internalType": "bool",
          "name": "isLong",
          "type": "bool"
        },
        {
          "internalType": "uint256",
          "name": "size",
          "type": "uint256"
        }
      ],
      "name": "openTrade",
      "outputs": [],
      "stateMutability": "nonpayable",
      "type": "function"
    },
    {
      "inputs": [
        {
          "internalType": "uint256",
          "name": "newPrice",
          "type": "uint256"
        }
      ],
      "name": "updateMockPrice",
      "outputs": [],
      "stateMutability": "nonpayable",
      "type": "function"
    },
    {
      "inputs": [
        {
          "internalType": "uint256",
          "name": "amount",
          "type": "uint256"
        }
      ],
      "name": "withdraw",
      "outputs": [],
      "stateMutability": "nonpayable",
      "type": "function"
    }
  ],
  "bytecode": "0x6080604052686c6b935b8bbd400000600255348015601c57600080fd5b50610e8d8061002c6000396000f3fe60806040526004361061007b5760003560e01c8063c7207e741161004e578063c7207e7414610138578063cd7ef5fb14610163578063d0e30db0146101a2578063fcdb89ce146101ac5761007b565b806319af783e1461008057806327e235e3146100a95780632e1a7d4d146100e6578063b0b1ebce1461010f575b600080fd5b34801561008c57600080fd5b506100a760048036038101906100a29190610899565b6101c3565b005b3480156100b557600080fd5b506100d060048036038101906100cb9190610924565b6101cd565b6040516100dd9190610960565b60405180910390f35b3480156100f257600080fd5b5061010d60048036038101906101089190610899565b6101e5565b005b34801561011b57600080fd5b50610136600480360381019061013191906109b3565b610348565b005b34801561014457600080fd5b5061014d61057f565b60405161015a9190610960565b60405180910390f35b34801561016f57600080fd5b5061018a60048036038101906101859190610924565b610585565b60405161019993929190610a02565b60405180910390f35b6101aa6105bc565b005b3480156101b857600080fd5b506101c1610656565b005b8060028190555050565b60006020528060005260406000206000915090505481565b60008111610228576040517f08c379a000000000000000000000000000000000000000000000000000000000815260040161021f90610abc565b60405180910390fd5b806000803373ffffffffffffffffffffffffffffffffffffffff1673ffffffffffffffffffffffffffffffffffffffff1681526020019081526020016000205410156102a9576040517f08c379a00000000000000000000000000000000000000000000000000000000081526004016102a090610b28565b60405180910390fd5b806000803373ffffffffffffffffffffffffffffffffffffffff1673ffffffffffffffffffffffffffffffffffffffff16815260200190815260200160002060008282546102f79190610b77565b925050819055503373ffffffffffffffffffffffffffffffffffffffff166108fc829081150290604051600060405180830381858888f19350505050158015610344573d6000803e3d6000fd5b5050565b6000811161038b576040517f08c379a000000000000000000000000000000000000000000000000000000000815260040161038290610c1d565b60405180910390fd5b806000803373ffffffffffffffffffffffffffffffffffffffff1673ffffffffffffffffffffffffffffffffffffffff16815260200190815260200160002054101561040c576040517f08c379a000000000000000000000000000000000000000000000000000000000815260040161040390610b28565b60405180910390fd5b6000600160003373ffffffffffffffffffffffffffffffffffffffff1673ffffffffffffffffffffffffffffffffffffffff1681526020019081526020016000206001015414610491576040517f08c379a000000000000000000000000000000000000000000000000000000000815260040161048890610c89565b60405180910390fd5b806000803373ffffffffffffffffffffffffffffffffffffffff1673ffffffffffffffffffffffffffffffffffffffff16815260200190815260200160002060008282546104df9190610b77565b9250508190555060405180606001604052808315158152602001828152602001600254815250600160003373ffffffffffffffffffffffffffffffffffffffff1673ffffffffffffffffffffffffffffffffffffffff16815260200190815260200160002060008201518160000160006101000a81548160ff02191690831515021790555060208201518160010155604082015181600201559050505050565b60025481565b60016020528060005260406000206000915090508060000160009054906101000a900460ff16908060010154908060020154905083565b600034116105ff576040517f08c379a00000000000000000000000000000000000000000000000000000000081526004016105f690610cf5565b60405180910390fd5b346000803373ffffffffffffffffffffffffffffffffffffffff1673ffffffffffffffffffffffffffffffffffffffff168152602001908152602001600020600082825461064d9190610d15565b92505081905550565b6000600160003373ffffffffffffffffffffffffffffffffffffffff1673ffffffffffffffffffffffffffffffffffffffff1681526020019081526020016000206040518060600160405290816000820160009054906101000a900460ff16151515158152602001600182015481526020016002820154815250509050600081602001511161071a576040517f08c379a000000000000000000000000000000000000000000000000000000000815260040161071190610d95565b60405180910390fd5b600081600001511561075d578160400151826020015183604001516002546107429190610b77565b61074c9190610db5565b6107569190610e26565b9050610790565b8160400151826020015160025484604001516107799190610b77565b6107839190610db5565b61078d9190610e26565b90505b8082602001516107a09190610d15565b6000803373ffffffffffffffffffffffffffffffffffffffff1673ffffffffffffffffffffffffffffffffffffffff16815260200190815260200160002060008282546107ed9190610d15565b92505081905550600160003373ffffffffffffffffffffffffffffffffffffffff1673ffffffffffffffffffffffffffffffffffffffff168152602001908152602001600020600080820160006101000a81549060ff02191690556001820160009055600282016000905550505050565b600080fd5b6000819050919050565b61087681610863565b811461088157600080fd5b50565b6000813590506108938161086d565b92915050565b6000602082840312156108af576108ae61085e565b5b60006108bd84828501610884565b91505092915050565b600073ffffffffffffffffffffffffffffffffffffffff82169050919050565b60006108f1826108c6565b9050919050565b610901816108e6565b811461090c57600080fd5b50565b60008135905061091e816108f8565b92915050565b60006020828403121561093a5761093961085e565b5b60006109488482850161090f565b91505092915050565b61095a81610863565b82525050565b60006020820190506109756000830184610951565b92915050565b60008115159050919050565b6109908161097b565b811461099b57600080fd5b50565b6000813590506109ad81610987565b92915050565b600080604083850312156109ca576109c961085e565b5b60006109d88582860161099e565b92505060206109e985828601610884565b9150509250929050565b6109fc8161097b565b82525050565b6000606082019050610a1760008301866109f3565b610a246020830185610951565b610a316040830184610951565b949350505050565b600082825260208201905092915050565b7f5769746864726177616c20616d6f756e74206d7573742062652067726561746560008201527f72207468616e2030000000000000000000000000000000000000000000000000602082015250565b6000610aa6602883610a39565b9150610ab182610a4a565b604082019050919050565b60006020820190508181036000830152610ad581610a99565b9050919050565b7f496e73756666696369656e742062616c616e6365000000000000000000000000600082015250565b6000610b12601483610a39565b9150610b1d82610adc565b602082019050919050565b60006020820190508181036000830152610b4181610b05565b9050919050565b7f4e487b7100000000000000000000000000000000000000000000000000000000600052601160045260246000fd5b6000610b8282610863565b9150610b8d83610863565b9250828203905081811115610ba557610ba4610b48565b5b92915050565b7f54726164652073697a65206d7573742062652067726561746572207468616e2060008201527f3000000000000000000000000000000000000000000000000000000000000000602082015250565b6000610c07602183610a39565b9150610c1282610bab565b604082019050919050565b60006020820190508181036000830152610c3681610bfa565b9050919050565b7f436c6f7365206578697374696e67207472616465206669727374000000000000600082015250565b6000610c73601a83610a39565b9150610c7e82610c3d565b602082019050919050565b60006020820190508181036000830152610ca281610c66565b9050919050565b7f4465706f736974206d7573742062652067726561746572207468616e20300000600082015250565b6000610cdf601e83610a39565b9150610cea82610ca9565b602082019050919050565b60006020820190508181036000830152610d0e81610cd2565b9050919050565b6000610d2082610863565b9150610d2b83610863565b9250828201905080821115610d4357610d42610b48565b5b92915050565b7f4e6f206163746976652074726164650000000000000000000000000000000000600082015250565b6000610d7f600f83610a39565b9150610d8a82610d49565b602082019050919050565b60006020820190508181036000830152610dae81610d72565b9050919050565b6000610dc082610863565b9150610dcb83610863565b9250828202610dd981610863565b91508282048414831517610df057610def610b48565b5b5092915050565b7f4e487b7100000000000000000000000000000000000000000000000000000000600052601260045260246000fd5b6000610e3182610863565b9150610e3c83610863565b925082610e4c57610e4b610df7565b5b82820490509291505056fea26469706673582212206707e7f4a784a3e41ecc4ef223eebb5ceda2b359ca1075f520d55f589078502264736f6c634300081b0033",
  "linkReferences": {},
  "deployedLinkReferences": {}
}